:020000041A00E0
:10000000A80800101503001A1D03001A1F03001A88
:100010002103001A2303001A2503001A5A5A5A5AB8
:100020000000000000000000000000002703001A8C
:100030002903001A000000002B03001A7D1E001A7D
:100040002F03001A2F03001A2D1F001A00000000B2
:100050002F03001A2F03001A2F03001A2F03001A70
:100060002F03001A2F03001A2F03001A2F03001A60
:100070002F03001A2F03001A2F03001A2F03001A50
:100080002F03001A2F03001A2F03001A2F03001A40
:100090002F03001A2F03001A2F03001A2F03001A30
:1000A0002F03001A7525001A2F03001A2F03001AB8
:1000B0002F03001A2F03001A2F03001A2F03001A10
:1000C0002F03001A2F03001A2F03001A2F03001A00
:1000D0002F03001A2F03001A2F03001A2F03001AF0
:1000E0005D1E001A2F03001A2F03001A2F03001A97
:1000F000000000002F03001A2F03001A2F03001A1C
:10010000000000002F03001A2F03001A2F03001A0B
:100110002F03001A00000000000000000000000093
:1001200000000000000000000000000000000000CF
:1001300000000000000000000000000000000000BF
:1001400000000000000000000000000000000000AF
:10015000000000000000000000000000000000009F
:10016000000000000000000000000000000000008F
:10017000000000000000000000000000000000007F
:10018000000000000000000000000000000000006F
:10019000000000000000000000000000000000005F
:1001A000000000000000000000000000000000004F
:1001B000000000000000000000000000000000003F
:1001C000000000000000000000000000000000002F
:1001D000000000000000000000000000000000001F
:1001E000000000000000000000000000000000000F
:1001F00000000000000000000000000000000000FF
:1002000000000000000000000000000000000000EE
:1002100000000000000000000000000000000000DE
:1002200000000000000000000000000000000000CE
:1002300000000000000000000000000000000000BE
:1002400000000000000000000000000000000000AE
:10025000000000000000000000000000000000009E
:10026000000000000000000000000000000000008E
:10027000000000000000000000000000000000007E
:10028000000000000000000000000000000000006E
:10029000000000000000000000000000000000005E
:1002A000000000000000000000000000000000004E
:1002B000000000000000000000000000000000003E
:1002C000000000000000000000000000000000002E
:1002D000000000000000000000000000000000001E
:1002E000000000000000000000000000000000000E
:1002F000000000000000000000000000FFFFFFFF02
:10030000DFF80CD005F024FA00480047D31D001A8E
:10031000A80800100648804706480047FEE7FEE7A9
:10032000FEE7FEE7FEE7FEE7FEE7FEE7FEE7FEE7A5
:10033000614D001A0103001A10B5002807DA0A07F8
:10034000140EF84A00F00F031B1FD45403E00A07F1
:10035000130EF54A135410BD10B50023002204E01B
:10036000845C1C44E3B2541CE2B24C1E9442F7DCA1
:10037000035510BD0146D1F801000A78812A4AD000
:1003800008DC012A0DD0022A18D0032A33D0042A0F
:1003900051D120E0822A42D0832A48D0842A4AD1EF
:1003A00041E000EB001202EB4012E04B1B68D0185A
:1003B000DF4A10600122DF4B1A703CE000EB0012B4
:1003C00002EB4012D94B1B68D018DB4A10600122A7
:1003D000DA4B1A702FE0404240F6340242432423A5
:1003E00092FBF3F2D64B1B68D018D64A106001225C
:1003F000D54B1A701FE0404240F63402424324239A
:1004000092FBF3F2CE4B1B68D018D04A1060012249
:10041000CF4B1A700FE00022C64B1A700BE000227F
:10042000C64B1A7007E00022C74B1A7003E0002287
:10043000C74B1A7000BF00BF704710B50446207844
:1004400060B94FF48011052003F0FAFA4FF400115F
:10045000052003F0F5FAF02020701BE0BD4800787D
:1004600010B90F20207015E04FF48011052003F023
:10047000E3FA4FF40011052003F0DEFAB6480088D5
:1004800030B10120B5490870B3480088B44908600C
:10049000FF20207010BD10B50446002020700420FD
:1004A00003F0D3FA00F4007008B901202070042092
:1004B00003F0CBFA00F4807008B902202070042009
:1004C00003F0C3FA00F4807038B9042003F0BDFAD9
:1004D00000F4007008B903202070207810BD70B5BA
:1004E00040F6B83500240A229E499F4802F0A8F839
:1004F000012200219C4802F014F901219A4802F0DF
:10050000DCF80CE0681E85B24DB900221146964811
:1005100002F007F9944802F0BFF8002070BD0122F4
:100520000021914802F01CF90028EBD000218E48F0
:1005300002F00EF90446002211468B4802F0F1F851
:10054000894802F0A9F804EB840084B22046E5E76C
:1005500030B58BB005460024142407E0FFF7BFFF39
:1005600020B1611ECCB201A921F81400002CF5D1F4
:10057000BDF80400012D0ED1012409E001A931F8D4
:100580001410814202DD01A931F81400611CCCB2C3
:10059000142CF3DB0DE0012409E001A931F814105B
:1005A000814202DA01A931F81400611CCCB2142C8A
:1005B000F3DB0BB030BD70B5002400250020FFF741
:1005C000C7FF06464FF40021052003F039FA4FF427
:1005D0000031052003F034FA4FF40021052003F028
:1005E0002BFA40F2DC505E49086000BF5C480068AE
:1005F0000028FBD15D480078401E5D49085C00EB97
:100600004001C1EBC01040F2DC51C1EBC0005449C5
:10061000086000BF00BFFFF762FF044604B9FAE7B5
:10062000351B002D00DA6D4250480078401E5149BC
:1006300051F82000A8420BD24FF40021052003F00E
:10064000FFF94FF40031052003F0FAF9AA2070BD3C
:100650004348006858B94FF40021052003F0F0F931
:100660004FF40031052003F0EBF95520EFE7A642E7
:10067000D0DC4FF40021052003F0E2F94FF4003103
:10068000052003F0DDF9FF20E1E770B50024002527
:100690000120FFF75DFF06464FF40021052003F01F
:1006A000CFF94FF40031052003F0CAF94FF40031BF
:1006B000052003F0C1F940F2DC502949086000BF71
:1006C000274800680028FBD128480078401E2849A8
:1006D000085C00EB4001C1EBC01040F2DC51C1EB03
:1006E000C0001F49086000BF00BFFFF7F8FE0446C6
:1006F00004B9FAE7351B002D00DA6D421B4800787B
:10070000401E1C4951F82000A84235D24FF4002168
:10071000052003F095F94FF40031052003F090F91E
:10072000AA2070BD18ED00E000E400E0B400001065
:1007300088000010980000108C0000109900001034
:10074000B0000010940000109B00001090000010FA
:100750009A00001005010010AA000010E10000102E
:10076000A0000010A086010000300E400001001023
:10077000E2000010E8000010FB48006858B94FF490
:100780000021052003F05CF94FF40031052003F04F
:1007900057F9552070BDA642A6DB4FF40021052075
:1007A00003F04EF94FF40031052003F049F9FF2022
:1007B000F0E710B5044604F10E00FFF76CFEEB49BC
:1007C00008700846007810B90020207010BD20780D
:1007D000552806D05A280CD0A52814D0AA282BD1E9
:1007E00003E0FFF7E8FE207026E0FFF74EFF2070E1
:1007F00022E0FFF7E0FE20702078FF2802D1FFF70B
:1008000044FF207018E0FFF740FF20702078FF2899
:1008100003D1FFF7D0FE20700DE02078AA280AD17E
:100820004FF47A70D049086000BFCF4800680028B4
:10083000FBD1FFF7C0FE00BF00BFCD4BCD4A00216A
:100840004FF48A4002F0B4F800BFBFE770B5044629
:100850000A22C949C94801F0F3FE01220321C74811
:1008600001F05FFF0121C54801F027FF00BF012211
:100870000321C24801F074FF0028F8D00321BF48CB
:1008800001F066FF054600220321BC4801F049FF44
:1008900005EBC5004FF6FF7101EA80052580B748DA
:1008A00001F0FAFE70BD10B5012004F017FCB44948
:1008B0000968884200D110BD0120B249087004F0D7
:1008C0000DFCAF490968884208DDAF480068404226
:1008D000AE4908600120AE49087006E0AA480068E9
:1008E000AA4908600020AA49087000BFE3E710B5D4
:1008F000022004F0F3FBA7490968884200D110BD2B
:100900000120A5490870022004F0E8FBA14909680C
:10091000884208DDA14800684042A14908600120E2
:10092000A049087006E09D4800689D4908600020C5
:100930009C49087000BFE2E710B58CB00446002067
:100940008DF8000048200190CDF808D001200390D8
:10095000CDF814D0022006901E200890002201A994
:10096000914803F013FB9DF8000020709DF80100F2
:1009700060700CB010BD10B58CB0044678200190AA
:10098000002002900390CDF814D0022006901E2083
:100990000890002201A9844803F0F8FA9DF80100AC
:1009A00020709DF8000060700CB010BD2DE9FF5F55
:1009B00004464FF0030A4FF0000900BF4A208DF8AB
:1009C0000800AA2020706078242874D00EDCA0F1E2
:1009D0001100122870D2DFE800F09BA493973448EE
:1009E0005A702E6F28F6F5B3F4F3F2F1672876D03B
:1009F00012DC312874D008DC252872D0262871D06A
:100A0000292870D0302857D1F0E032286CD05128F6
:100A10006BD06528F7D1D3E1F6380728DAD2DFE8C2
:100A200000F0F1F0EFEEED65DF00A01CFFF7A3FF93
:100A30004FF0050A65E2A01CFFF77EFF4FF0050AA4
:100A40005FE25A48007878B9022004F047FBD4F8F6
:100A5000021040F634025143242291FBF2F1084483
:100A60004C490860FFF743FF4BE25048007868B9F3
:100A7000012004F033FBD4F8021001EB011202EB69
:100A8000411108443E490860FFF70DFF39E247482D
:100A9000007800B135E2D4F8020040F63401484352
:100AA000242190FBF1F04249096808443949086063
:100AB000FFF71DFF25E287E01FE23C48007800B108
:100AC0001FE2D4F8020000EB001101EB401039499D
:100AD000096808442A490860FFF7E5FE11E25CE175
:100AE00078E023E11CE125E093E0FCE14FF0040A0B
:100AF000294800782349097800EB4100A07000E202
:100B0000608826490860FCE160881F490860F8E1B8
:100B10002648007800B1F4E1B4F9020020490860E9
:100B2000EFE12248007800B1EBE1B4F90200174987
:100B30000860E6E1A01CFFF789FE4FF0050AE0E13E
:100B4000A078A072207861780844A0700123032265
:100B50002146194804F095F8A07AA070A01CFFF770
:100B600028FE4FF0040ACCE1A000001000010010A4
:100B70003B4E001A434E001AA086010000300E4082
:100B8000C0000010B9000010C8000010D000001014
:100B9000CD000010BC000010B8000010C400001010
:100BA000D4000010CC00001000100A40CE0000104D
:100BB000B0000010B40000100020084098E0A7E04A
:100BC00082E09FE01FE015E0A01CFFF764FC4FF0FF
:100BD000040A96E1A01CFFF730FC4FF0040A90E1F4
:100BE0006088FE4908804FF0030A8AE1A078FC493A
:100BF000087086E16088FB49088082E164E154E185
:100C000031E1F0E0AAE0F748008860804FF0050A83
:100C100077E1F548007800B173E1A078E8B30120EE
:100C200004F05CFAC117F14A106051601046016887
:100C3000406844F620620023A1FB027C00FB02C056
:100C400001FB0300E9490F60486084220868496895
:100C500004F0B7FBE54A10605160022004F03EFA50
:100C6000C117E34A1060516010460168426844F6BB
:100C700020630020A1FB037C02FB03C201FB0020D8
:100C8000DB490F604860842200230868496804F04B
:100C900098FBD74A1060516012E0FFE7D548006822
:100CA00001B2022004F046F9022004F026FAD248EC
:100CB000006801B2012004F03DF9012004F01DFAA2
:100CC000A078CE4908701CE1B4F80390A078401ECB
:100CD000CB4941F82090BA2009FB00F04FF47A711B
:100CE000B0FBF1F9A078401EC64941F8209008E118
:100CF000A078401EC24951F82000A4F803004FF02C
:100D0000060AFEE0E178A078401EBF4A1154F8E0E0
:100D1000A078401EBC49085CE0704FF0040AF0E087
:100D2000BA480078A0704FF0040AEAE0A078CF300B
:100D3000C0B28DF80B00A0788DF80A0085208DF8E0
:100D400009004A208DF80800A078B04908700023F7
:100D5000042202A9AE4803F077FDD2E027208DF8E7
:100D60000A00DD208DF809004A208DF808004FF0B8
:100D7000050A0023032202A9A54803F065FD00200F
:100D8000A070E070002305222146A14803F0AFFDCA
:100D9000AA202070F6206070B3E0CD208DF80B0003
:100DA000FF208DF80A0084208DF809004A208DF874
:100DB00008000023042202A9954803F045FDA0E0A5
:100DC000CE208DF80B0000208DF80A0084208DF8CD
:100DD00009004A208DF808000023042202A98C484B
:100DE00003F032FD8DE04FF0070A7F480078A8BB82
:100DF000884803684068884909685F1A60EBE171B8
:100E0000864A4FF00003384604F0DBFA15461E46CA
:100E1000242200202946A1FB027B06FB02B205FB2F
:100E2000002140F634020346384604F0CAFA05466B
:100E30000E4600210846691A76EB000004DA48F6EF
:100E4000A042AD1846F1000648F6A04185EA01002F
:100E5000304300D10025C4F8025003E0FFE7002032
:100E6000C4F802004DE04FF0070A5F480078C0B9AF
:100E70006B48036840686B4909685F1A60EBE17171
:100E80004FF031024FF00003384604F09AFA48F66A
:100E9000A0420023CDE9000104F093FAC4F8022037
:100EA00002E00020C4F802002BE04FF0070A4E4891
:100EB000007828B9022004F0D5F9C4F8020002E055
:100EC0000020C4F802001CE04FF0070A46480078F2
:100ED00028B9012004F0C6F9C4F8020002E000209D
:100EE000C4F802000DE04FF0040A3F48007800B15A
:100EF00007E0A01CFFF73EFA03E0012004B0BDE8C4
:100F0000F09F00BF51462046FFF726FA00204649D1
:100F10000870012352462146444803F0B2FE0020E7
:100F2000ECE710B54FF48011052002F089FD4FF475
:100F30000011052002F084FD00203D4908702F4972
:100F400008703C4908703C4908702B4908602949E1
:100F500008603A4908603A4908602748006801B2C9
:100F6000012003F0E7FF012004F0C7F821480068E2
:100F700001B2022003F0DEFF022004F0BEF80020E0
:100F80002949087010BD10B5022004F078F802203D
:100F900004F041F8012004F072F8012004F03BF85D
:100FA000002455E0022004F08AF800F0010028B97E
:100FB000022004F064F8022004F02DF8012004F06F
:100FC0007EF800F0010028B9012004F058F8012053
:100FD00004F021F814480078A0B334E0AA0000100F
:100FE0000501001002010010CE0000105800001092
:100FF00060000010D4000010D000001006010010A6
:10100000F4000010E8000010E200001004010010DD
:1010100000200C4000000010B0000010200B200049
:1010200008000010B4000010E0000010002008408C
:10103000E1000010B8000010B9000010D800001046
:10104000DC00001002E0FE48FFF7B0FC601CC4B2F8
:10105000642CA7DB6FF00041022004F013F96FF05D
:101060000041012004F00EF96FF00041022004F06D
:1010700018F96FF00041012004F013F9012002F08B
:10108000E4FC00F48040C8B94FF47A71022003F008
:1010900051FF022004F031F840F2DC50E9490860C9
:1010A00008E0022004F01AF8E748007810B1E4489C
:1010B000FFF77CFCE34800680028F2D1E3490220F6
:1010C00003F038FF022004F018F818E0012002F0C5
:1010D000BCFC00F4804060B90021022003F02AFF2C
:1010E000022004F00AF8022003F0F8FFD849086053
:1010F00006E0D548007810B1D148FFF757FCE5E786
:1011000000BFD449012003F015FF012003F0F5FFD3
:101110000CE0012003F0D3FF00F0010000B906E06D
:10112000C948007810B1C648FFF740FCF1E700BF9E
:1011300000241FE0022003F0C2FF00F0010028B9E4
:10114000022003F09CFF022003F065FF012003F062
:10115000B6FF00F0010028B9012003F090FF012044
:1011600003F059FFB848007810B1B548FFF71EFCEE
:10117000601CC4B2642CDDDB40F2DC51012004F0C1
:101180005DF8B549012003F0C7FF012003F0A6FF79
:10119000B249086010BD10B586B003F0E1FD01F062
:1011A000ABFE112002F08AF84FF47A71B0FBF1F433
:1011B000601EB0F1807F00D30FE0601E4FF0E02191
:1011C00048610F214FF0FF30FFF7B6F800204FF0D5
:1011D000E02188610720086100BF042308220E2156
:1011E0000D2003F031F901221107062002F012FC54
:1011F000042308220C210D2003F026F90122910678
:10120000062002F007FC042308220A210D2003F027
:101210001BF901221106062002F0FCFB0423082220
:101220000B210D2003F010F901225106062002F0D7
:10123000F1FB0423482201210D2003F005F90022CF
:101240004FF40041062002F0E5FB042348220D2163
:10125000084603F0F9F800224FF00061062002F082
:10126000D9FB042348220F210E2003F0EDF80022C1
:101270004FF40041072002F0CDFB042348220E2149
:10128000084603F0E1F800224FF48041072002F005
:10129000C1FB002348220421032003F0D5F80022DB
:1012A0004FF48041012002F0B5FB062310220821F3
:1012B000042003F0C9F8062350220921042003F07A
:1012C000C3F8022310221946032003F0BDF80223BD
:1012D00050220121032003F0B7F802231822032132
:1012E000184603F0B1F80223D0220421184603F077
:1012F000ABF801A803F08BFA4FF46140019001A90B
:10130000574803F0ABF9684603F0B8FB6946544808
:1013100003F080FB0121524803F058FA012200211A
:101320004F4803F02AFB012202214D4803F025FB20
:10133000022318220D210C2003F086F80223D0226C
:101340000E210C2003F080F8022318220C210846FD
:1013500003F07AF801A803F05AFA4FF4E130019053
:1013600001A9404803F07AF9684603F087FB694613
:101370003C4803F04FFB01208DF813008DF814005A
:101380008DF8150032208DF8170000208DF8100020
:1013900001208DF8120000208DF8160001208DF834
:1013A000110004A92F4803F00CFC012200212D4854
:1013B00003F0E3FA012202212A4803F0DEFA0921B0
:1013C0001920FEF7B9FF192001F0E5F801212548A1
:1013D00003F0FCF902F09EF9022001F025F9092141
:1013E0000220FEF7A9FF012318220A210F2003F093
:1013F0002BF80123D0220B210F2003F025F801A8A0
:1014000003F005FA4FF4E130019001A9164803F00A
:1014100025F9684603F032FB01208DF80200694689
:10142000114803F0F7FA012200210F4803F0A5FA52
:10143000012202210C4803F0A0FA01210A4815E01C
:1014400000020010A0000010E00000103CF6FFFFBA
:10145000B000001024FAFFFF68870100B4000010FC
:1014600000200C40002008400010084003F0AEF9B6
:1014700002F050F9022001F0D7F809210220FEF70E
:101480005BFF0120F64908600020C860F54808614C
:10149000282048600020886002204861042088617C
:1014A0000020C8610862084602F051F90020EE49A8
:1014B0000870022001F06FF81B21062001F0ECFB00
:1014C0001A21062001F0E8FBE84802F037F80C2169
:1014D000E64802F09DF8E64BE64A00214FF48A40C8
:1014E00001F066FA0020E449086003220C21DF487D
:1014F00002F03FF801220C21DC4802F072F80021D2
:101500002A20FEF719FF2A2001F045F803F058FCC5
:10151000DA49DB4802F02FFB0121D94802F06AFBCF
:1015200000221146D74801F0EFF8002308220421D9
:10153000084602F089FF01221021022002F06AFA17
:101540001021022002F078FA0423082200210B2047
:1015500002F07AFF01221105052002F05BFA4FF438
:101560008011052002F06CFA0423082201210B20CF
:1015700002F06AFF01225105052002F04BFA4FF4F8
:101580000011052002F05CFA002348220321062006
:1015900002F05AFF00220421032002F03BFA01204E
:1015A000B94908600846C06A20F00401B648C16223
:1015B000C06C40F00401B448C164282000F0EBFF87
:1015C0000423082219460A2002F03EFF0122D1041A
:1015D000052002F01FFA4FF40021052002F030FA36
:1015E000042308221946092002F02EFF012251048B
:1015F000052002F00FFA4FF40031052002F020FA26
:101600000023082203210A2002F01EFF012291027A
:10161000042002F0FFF94FF48061042002F010FA78
:101620004FF48061042002F007FA002340220121D8
:101630000A2002F009FF00224FF48071042002F01A
:10164000E9F90023402202210A2002F0FDFE0022D7
:101650004FF40071042002F0DDF906B010BD8CB02B
:1016600000200B900A9009900890824607900690FF
:1016700000BF00BF00BF00BF00BF00BF0120834903
:101680000870FFF788FD8248FEF705FF8149087062
:1016900040F2DC508049086005E08048007810B1D5
:1016A0007B48FFF783F97C4800680028F5D1FFF7F5
:1016B0006AFC7B4800687B490860FFF7F4F87A48C9
:1016C00000687A490860FFF712F900206F49087036
:1016D0000120774908707BE37648007810B1FFF766
:1016E00020FC75E36D48007840B100207049087017
:1016F0006748FFF75BF901206D490870022003F08D
:10170000EDFCC1176C4A106051606C4800780028ED
:1017100063D06B48007878B36448006811685268F9
:10172000B0EB010ABAF1000F09DB0020654908603F
:10173000022003F0EFFB0020604908704DE0CAF181
:10174000000042F21071884210DA5F48006800FB26
:101750000AF090FBF1F05B490860084600684042DF
:1017600014283ADA6FF01300086036E05648006833
:1017700040425449086030E0FFE74F480168406844
:101780004A480068B1EB000ABAF1000F08DB0220FA
:1017900003F0C0FB00204B490860484908701CE07A
:1017A000CAF1000042F21071884212DA464800681D
:1017B00000FB0AF090FBF1F042490860084600681F
:1017C0004042086008460068142806DA14200860C1
:1017D00003E03D4800683B490860012003F07EFCBF
:1017E000C1173A4A1060516039480078002814D077
:1017F0003848007890B32B48006811685268B0EB05
:10180000010ABAF1000F09DB00203349086001200A
:1018100003F080FB00202E49087094E02F480068F8
:1018200000FB0AF044F6206190FBF1F02A490860C1
:1018300008460068404229490968884204DD274873
:101840000068404224490860234800684042142848
:1018500079DA6FF013002049086074E040E000007E
:10186000DC010010B4010010100000100040044022
:101870003B4E001A434E001A10ED00E0A086010016
:1018800000100A4000300E4000800840CE000010DA
:101890000002001000010010A0000010E000001085
:1018A000B4000010C0000010B0000010BC00001018
:1018B000A8000010AC00001000000010B8000010DC
:1018C000CC000010D4000010C4000010080000106C
:1018D000B9000010CD000010D0000010C8000010AA
:1018E000FE4801684068FE480068B1EB000ABAF1A2
:1018F000000F09DB0020FB490860012003F00AFB10
:101900000020F94908701EE0F848006800FB0AF062
:1019100044F6206190FBF1F0F24908600846006847
:101920004042086008460068F0490968884203DDC3
:10193000EE480068EB490860EA480068282802DAA7
:101940002820E8490860EA48007800286FD0E94973
:101950000C684D6884214FF0000C2346A3FB010B5B
:1019600005FB01B104FB0C15044644F6206200237C
:101970002046294603F025FD04460D46DE4806684C
:101980004768842100203246A2FB01CB07FB01B14E
:1019900006FB0017664644F62062002330463946AF
:1019A00003F00FFD06460F46D448D0F80080D0F86B
:1019B0000490D34801684268CDE9041240F26B12EA
:1019C00000214046A0FB02CB09FB02B208FB012923
:1019D000E0464FF47A7200234046494603F0F1FC9A
:1019E0008046894640F26B130022DDE90401A0FB2A
:1019F00003CB01FB03B100FB0210CDE904C04FF49F
:101A00007A720023DDE9040103F0DBFCCDE9040177
:101A1000BC4801684068891BB84109DAB9490868BF
:101A20004968311A06914FF00100009008E0CDE0BE
:101A3000B44908684968811B06914FF0FF30009057
:101A4000A64801684068091BA84108DAA34908684C
:101A50004968211A07914FF00100029007E09F4961
:101A600008684968011B07914FF0FF3002909D48BC
:101A70000068B0B99C48007898B9079800EBC0009E
:101A8000A149098890FBF1F10798C0EB001001EB28
:101A90004000642190FBF1F10298A1FB000102904B
:101AA00035E0712200214046A0FB02CB09FB02B2C7
:101AB00008FB0129E046642200234046494603F022
:101AC00080FC80468748006818EB00088349086856
:101AD0004968884A1060516010460168406844F6C1
:101AE00020624FF0000CA1FB023B00FB02B001FBA7
:101AF0000C0080490B6048604FF084024FF00003F7
:101B00000868496803F05DFC7A4A106051607F48BC
:101B10000068B0B97E48007898B9069800EBC0001C
:101B20007949098890FBF1F10698C0EB001001EBB0
:101B30004000642190FBF1F00099A0FB01010090AE
:101B400037E071230022DDE90401A0FB03CB01FB98
:101B500003B100FB0210CDE904C064220023DDE9DB
:101B6000040103F02EFC04906849049809684018A9
:101B700004906448016840685F4A116050601146F3
:101B800008684A6844F620614FF00003A0FB01CBCF
:101B900002FB01B100FB03105749C1F800C04860C7
:101BA0004FF084020868496803F00BFC524A106049
:101BB0005160029818EB00010A91009904984018AE
:101BC0000B904FF000005049088005E04548006840
:101BD0000A904E4800680B904E48007848B30B9826
:101BE000002826DD4C480068464A11685268B0EB70
:101BF000010ABAF1000F01DACAF1000A43F25C00EF
:101C0000824507DA0B9800FB0AF043F25C0190FB77
:101C1000F1F00B903B48036841683F480068C217E9
:101C2000181A914105DB00200B90384908603849AB
:101C300008703A48007848B30B98002826DA3848EC
:101C40000068304A11685268B0EB010ABAF1000F1F
:101C500001DACAF1000A43F25C00824507DA0B9808
:101C600000FB0AF043F25C0190FBF1F00B902C4872
:101C70000068C117234B1A685B68801A994105DB1D
:101C800000200B9021490860214908702548007800
:101C900010B30A98002851DD234800680F4A1168E4
:101CA0005268B0EB010ABAF1000F01DACAF1000A7A
:101CB00043F25C00824507DA0A9800FB0AF043F21F
:101CC0005C0190FBF1F00A900448036841681648F3
:101CD0000068C217181A29E030E000000800001060
:101CE000C0000010D0000010B9000010C8000010A3
:101CF00006010010580000106000001030000010B5
:101D0000400000100000001014000010D40000106B
:101D1000B80000109A000010900000109B00001006
:101D2000940000109800001088000010914105DB1D
:101D300000200A90FE490860FE490870FE480078BD
:101D400048B30A98002826DAFC480068FC4A116863
:101D50005268B0EB010ABAF1000F01DACAF1000AC9
:101D600043F25C00824507DA0A9800FB0AF043F26E
:101D70005C0190FBF1F00A90F0480068C117F04A4E
:101D800013685268C01A914105DB00200A90E849A7
:101D90000860E849087008990A98884209D00A98AA
:101DA00001B2012003F0C6F8012003F0A6F90A9859
:101DB000089009990B98884209D00B9801B202202B
:101DC00003F0B8F8022003F098F90B98099000BFCF
:101DD00082E4FFF744FC01461F292DD00CDCA1F161
:101DE00011000E2838D2DFE800F0242522231D1E22
:101DF0001F2037373728372F302929D009DCA1F1A8
:101E00002000082828D2DFE800F01B212227272005
:101E1000271631291DD032291CD0512912D0FC2976
:101E20001AD10BE000BF00BF00BF0420704700BF05
:101E300000BF00BF00BF00BF00BF00BF0220F5E72A
:101E40000320F3E70520F1E700BF00BF00BF00BF9C
:101E500000BF00BF0120E9E70020E7E7B9490868B3
:101E600000F0010149B1B7490860B749098821B1BB
:101E7000B5490988491EB44A1180704710B5B34866
:101E8000007860B3B248006888B91A20B149087078
:101E900055204870002088706F20C87001230422EC
:101EA000AD4802F0EEFE0020A849087012E0A848F4
:101EB000006842F22831884203D10120A749087006
:101EC00008E0A348006842F21071884202D1002065
:101ED000A24908709E480068401E9D490860A048BD
:101EE000007848B19F480088401C9E4908809E4861
:101EF0000088401C9C4908809C48006828B19B4889
:101F00000068401E994908600FE09948007860B168
:101F10004FF48011052001F093FD4FF400110520CE
:101F200001F08EFD00209249087010BD2DE9F04FA0
:101F30002DED108B89B000BF00BF00BF4FF000082F
:101F40005EE28C480068012101FA08F1C9B208403C
:101F500000287DD087484168012000FA08F0C0B20F
:101F60000140002975D0012000FA08F0C0B2814973
:101F70008860B8F1000F03D0B8F1010F6AD104E016
:101F80000021084601F0D1FC13E27B480078401C98
:101F900079490870794801F0DAFB0121084601F01F
:101FA000C4FC7048008800B903E27548407A80118B
:101FB0007349097A40EA8100C0B28DF8090070487F
:101FC000007A80116E49C97940EA8100C0B28DF86B
:101FD0000A006B48C07980118DF80B009DF80B004A
:101FE00000F0020048B19DF80B0040F0FC008DF8B5
:101FF0000B00FF208DF80C0002E000208DF80C0093
:102000005F48807981115E48407941EA8000C0B222
:102010008DF80D005A48407980115949097940EAF4
:102020008100C0B28DF80E005548007980118DF8FE
:102030000F009DF80F0000F0020060B19DF80F0046
:1020400040F0FC008DF80F00FF208DF8100005E037
:10205000D4E1AFE1ACE100208DF810004848C07831
:1020600080114749897840EA8100C0B28DF811009B
:102070004348807880114249497840EA8100C0B2E3
:102080008DF812003E48407880118DF813009DF8BD
:10209000130000F0020048B19DF8130040F0FC006E
:1020A0008DF81300FF208DF8140002E000208DF859
:1020B0001400344908684968334A10605160334954
:1020C00008684968324A10605160DDF80900C2179B
:1020D000CDE90602DDF80D40E517DDF81100C71760
:1020E00006464FF0FF3211463046A0FB02C907FBFF
:1020F000029206FB012766464FF0430CDDE90630ED
:1021000013EB0C0240F10000CDE906206FF05903FB
:10211000D811DDE906219A1A88413FDADDE9061077
:102120005A3970F1000039DADDE90601821D31E02B
:10213000D0000010B9000010990000108C000010B1
:10214000080000100080084002010010A8000010E4
:10215000A40000100002001000200840AC00001095
:10216000060100101200001014000010A000001062
:10217000E10000100020004010000010DC01001001
:10218000B401001030000010680000104000001082
:102190007800001041F10001CDE90621103E67F101
:1021A0000007333C65F100056FF05901C811091BA8
:1021B000A84107DA5A21611A75F1000002DAA41F5A
:1021C00065F10005F9480268D0F804C0F8480168D4
:1021D000CB17511A6CEB0300CDE90010DDE90001CB
:1021E00003F001FA9FEDF30B53EC102B03F01AF9F7
:1021F0009FEDF20B53EC102B03F014F99FEDF10B54
:1022000053EC102B03F080F99FEDF00B53EC102BE7
:1022100003F07AF941EC1B0BB0EE4B0AF0EE6B0ABF
:1022200003F0E2FBB0EE409AF0EE609ADDE90601C1
:1022300003F0D9F953EC192B03F0F4F803F0E7F9A4
:10224000E44A10605160DDE9000103F0CCF99FED34
:10225000D90B53EC102B03F0E5F89FEDD80B53ECA2
:10226000102B03F0DFF89FEDD70B53EC102B03F08E
:102270004BF99FEDD60B53EC102B03F045F941ECD5
:102280001B0BB0EE4B0AF0EE6B0A03F011FCB0EE44
:10229000409AF0EE609A4FF0FF318C46A4FB012982
:1022A00005FB019104FB0C11104603F09CF953EC63
:1022B000192B03F0B7F803F0AAF9C74A1060516070
:1022C000C4480168406813685268C9185041C14A3F
:1022D00011605060C1480660476010460168406860
:1022E000BF4A13685268C91A60EB02001423002227
:1022F000A1FB039B00FB03B001FB0201B94802886C
:102300000023484603F05DF8B24AD2F800C0536893
:10231000B34AD2F8009052681CEB09095341B14A04
:1023200012884FF0000AA9FB02CB03FB02B209FBA3
:102330000A22034613EB0C0341EB0200AA490A6888
:1023400049689A184841A8490A604860A74908683E
:102350004A68311A67EB020014220023A1FB029B9A
:1023600000FB02B001FB03019E480288484603F0CF
:1023700028F89E4B1A685B6816EB020947EB030AC4
:10238000984A12884FF0000CA9FB023B0AFB02B2EC
:1023900009FB0C22C0185141954B1A685B688018E4
:1023A0005941934A1060516000208E49088000E036
:1023B00000BF00BF8F48C068012101FA08F1C9B20F
:1023C0000840D8B1012000FA08F0C0B2894908617C
:1023D000B8F1000F03D0B8F1010F0DD104E00021D6
:1023E000084601F0A2FA08E0834801F0B0F90121A3
:1023F000084601F09AFA00E000BF00BF08F10108AA
:10240000B8F1070F7FF69DAD09B0BDEC108BBDE8AC
:10241000F08F10B500BF012077494860084601F0F1
:1024200096F90121084601F080FA00BF7348007850
:102430005A28FBD100207249087000BF704800780C
:102440000928FBD10A206C494860084601F07FF951
:102450000121084601F069FA00206949087000BFAF
:10246000674800780428FBDB644800785A2800D0CD
:10247000D1E700206249087010BD6249086000BFC2
:10248000604909680029FBD1704710B55E480468AF
:1024900004F4805030B14FF480505B49083108603B
:1024A00000F0F2F910BD38B561E000230122694661
:1024B000564802F01CFA0446002C57D0544890F9B4
:1024C0000000401C70B99DF800002A280AD1FE20A7
:1024D0004F49087042F210704E4908602A204E4958
:1024E000087044E04A4890F90000801CB0B902200E
:1024F0004A4908709DF80000FFF76DFC401C40B28F
:10250000434908709DF800004549487042480078EA
:102510009DF8001008444049087028E09DF800002C
:102520003F493E4A127888543C480178384890F92F
:102530000000401C81420CD1FF203549087036480C
:1025400000789DF80010884211D1012035490870AB
:102550000DE0314800789DF8001008442E490870BD
:102560002E480078401C2D49087000E000E09CE7F0
:1025700000BF38BD70B52548866806F00E04062CED
:1025800002D1456905F09E05042C01D00C2C01D127
:10259000FFF789FF70BD00F01F0201219140420941
:1025A000920002F1E022C2F8001170470000001012
:1025B000B000001000000000008076404AD8124DA4
:1025C000FB21094000000000008066400000000080
:1025D000900540413000001038000010400000100D
:1025E0006800001012000010580000107800001061
:1025F0006000001000200040DC010010B401001059
:1026000010000010A0000010E04F0440002008401F
:102610009D000010A40000109E0000109C000010FF
:1026200000020010E000001000F01F0201219140A4
:10263000024A430942F823107047000080E100E09D
:102640002DE9F047054689461646002028604FF4DC
:1026500000185548854204D1002000F02FFE0446A2
:1026600006E05248854203D1012000F027FE0446CF
:10267000701C09FB00F707EB44007900B0FBF1F098
:10268000441E2002C6F10A0140EA414040EA08081F
:10269000C5F80080BDE8F087016801F0E06119B17C
:1026A000016821F0E0610160016821F0FF01016033
:1026B000016821F4001101607047026822F0E062B5
:1026C0000260026842EA016202607047026822F416
:1026D0008032026019B1026842F4803202607047B1
:1026E000026822F40012026019B1026842F400127A
:1026F00002607047026822F00062026019B102684D
:1027000042F000620260704710B5C36801248C403B
:10271000A343C36022B1C46801238B401C43C4603F
:1027200010BD10B5012A05D1036801248C40234354
:1027300003600CE0036803F0E0631BB1036823F05F
:10274000E0630360046801238B409C43046010BD78
:10275000024602F1100050F82130C3F3891070478F
:1027600010B503460C4603F1100050F8241012B1C6
:1027700001F0004101E001F0804109B1012010BDEC
:102780000020FCE701464868704702460B46516846
:1027900013B101F0004101E001F0804109B10120D5
:1027A00070470020FCE7000000300E4000400E4063
:1027B00070B501467B25F74E3560F64D843DC5F872
:1027C000801000BFF34D2D1F2D6805F40045002D2E
:1027D000F8D1F148EF4D10352D6805F480454DB125
:1027E000EC4D0C352C68EB4D843DD5F8943044EA23
:1027F000034204E0E74D10352D68C5F38A020260FC
:10280000E44D14352D6805F00F054560E14D183590
:102810002D68E04E1C36366845EA06458560DD4D7C
:1028200020352D68DB4E2436366845EA0645C560FE
:1028300041F28845D74E14363560FB25D54E843E8F
:10284000C6F884503546C5F8801000BFD14D2D1F05
:102850002D6805F40045002DF8D170BD41F2884186
:10286000CC4A14321160FB21CA4A843AC2F884105F
:10287000C849091F086000BFC649091F096801F45B
:1028800000410029F8D1704770B5002587E0C148A4
:102890008438456806F4004000284BD005F040001D
:1028A00028B1BE480068401CBC49086070BD05F0F6
:1028B000800028B1BA480068401CB9490860F5E7B3
:1028C00005F0070007282AD2DFE800F004050B1105
:1028D000171D230024E0B3480068401CB14908607C
:1028E0001EE0B1480068401CAF49086018E0AF48DE
:1028F0000068401CAD49086012E0AD480068401C0B
:10290000AB4908600CE0AB480068401CA94908606E
:1029100006E0A9480068401CA749086000E000BF25
:1029200000BF9C488438406800F0180099498439F9
:10293000486034E005F0070008BBC6F30E04FCB1A4
:10294000102C1DD893488438406820F0100091491D
:1029500084394860601E012181408E489C300068A7
:10296000814205D095480068401C944908601CE0ED
:10297000E0B2FFF71DFF20469149096888470EE045
:1029800084488438406820F00800824984394860CF
:10299000E0B2FFF763FF20468A49096888477D480F
:1029A00084380669002E7FF472AF00BF00BF7DE758
:1029B00030B5834C2360834C2260764C843C246881
:1029C00004F001043CB9734C843C246844F00104D5
:1029D000704D843D2C6002246E4DFC352C606D4C96
:1029E000843C246844F040046A4D843D2C6044F2E9
:1029F0000154EC600024AC612C46246824F04004AF
:102A00002C602C46246824F001042C6000BF614C2B
:102A1000843C246804F00104002CF8D15D4C843C13
:102A2000246844F00E045B4D843D2C6030BD30B50D
:102A3000034601B930BD01C904C9082A00D90822DA
:102A400002F00F0444F4DC54524D843DAC630C6836
:102A5000EC6320C92C0C4F4D843D2C640C686C64D5
:102A60000C68240CAC6400F080445CB945F6FC743E
:102A7000EC620024AC622C634FF4204444EA8004EE
:102A80006C630EE04DF6FF74424D843DEC624FF6F0
:102A9000FF74AC6284B22C634FF4604444EA104487
:102AA0006C63FB243B4D843D6C622C46236200BF6B
:102AB000384C843C246A04F40044002CF8D100BF54
:102AC000B8E770B50346086800240AB14FF4807473
:102AD00000F0804525BB00252E4E843EB56241F6B0
:102AE000FC75F5620025356344F4A45545F00805EE
:102AF000B5630025F56335647564B5644FF400452E
:102B000045EA80057563FB25756235462B6200BF7B
:102B1000204D843D2D6A05F40045002DF8D126E0B6
:102B200020F040404FF6FF751A4E843EB56249F6DC
:102B3000FF75F56285B2356344F4A45545F0080588
:102B4000B5630025F56335647564B5644FF440459D
:102B500045EA10457563FB25756235462B6200BF5B
:102B60000C4D843D2D6A05F40045002DF8D170BD53
:102B700010B50246084B1B680B60074B5B684B6047
:102B8000054B5B68082B02D90823034C63600020C7
:102B900020E0000084400A40340400100C010010C2
:102BA000080100101001001014010010180100109D
:102BB0001C01001020010010240100102801001049
:102BC000300100102C010010054B1C5C01F10803C2
:102BD0001C54401C024B083B5B688342F4D810BD78
:102BE0003C04001030B5F84C646804F002045CB199
:102BF000F54C646804F0080484F0080424B14FF430
:102C00000044F24D2C6002E00024F04D2C60F04CAA
:102C1000646C04F0020484F00204A4B1EC4C246C53
:102C200004F001047CB1EA4C646CC4F30362E74C29
:102C300054F82240E64D6D6CC5F307456D1C6C439E
:102C4000E24D6C6202E00024E04D6C620C2020E05A
:102C5000E04C34F91010DE4C0C5D04F0020484F0FA
:102C600002048CB1DA4C0C59C4F30362D84C0C5BEF
:102C7000C4F387035B1CD54C54F82240B4FBF3F437
:102C8000D24D45F8204003E00024D04D45F82040C7
:102C9000401C1028DCD930BD30B50346102B01DDB7
:102CA000032030BD07292FDB25292DDCC3EB0310C2
:102CB00000EB4000C84D2844405C18B3C54830F9CB
:102CC0001320501C58B1102909DC072907DBC04824
:102CD0001058C0F30360884201D10120E1E7BD48EC
:102CE00030F91120501C08B90220DAE7B84814580E
:102CF00024F07064C01440EA03600443B4481450E4
:102D00000020CEE70320CCE70220CAE72DE9F041FE
:102D100004460F46F4B95FB1AB48406820F00C00A0
:102D2000A94948600846406840F0030048600AE04E
:102D3000A548406820F00300A34948600846406861
:102D400040F008004860002600E0761CA348864258
:102D5000FBDB64E0022C06D10323102200210C20AF
:102D600001F072FB5BE0032C06D10023102213213B
:102D7000012001F069FB52E0042C50D0052C4ED00C
:102D8000062C14D137B99248806940F0010090496F
:102D9000886105E08E48806920F001008C498861D7
:102DA000002600E0761C8D488642FBDB37E0894830
:102DB00030F91450681C10B90220BDE8F08137B911
:102DC0008348285840F001008149685027E0804836
:102DD000285820F001007E496850072C06D100BF1A
:102DE0007B48C06900F001000028F9D0082C06D10A
:102DF00000BF7748C06A00F001000028F9D0092C14
:102E00000DD100BF7248006C00F001000028F9D01D
:102E10006F48006C00F0010008B900BFFEE7002019
:102E2000CBE7F0B5024600240025002301266848C0
:102E3000406CC0F30367654850F827105143541E97
:102E40006348406CDFF898C100EA0C00DFF880C1ED
:102E5000CCF84400634881421AD201E05B1C760042
:102E600070004843DFF87CC16045F7D3200440EA96
:102E7000053040EA032040F04000DFF854C1DCF8A0
:102E800044C040EA0C00DFF848C1CCF8440016E02A
:102E90005548814211D2200440EA053040EA03201F
:102EA00040F0C000DFF828C1DCF844C040EA0C0064
:102EB000DFF81CC1CCF8440001E00420F0BD002084
:102EC000FCE701464948814206D24148806920F02A
:102ED00004003F4A90610BE04548814206D23C48DD
:102EE000806940F004003A4A906101E00520704793
:102EF000364881610020FAE710B53E48FFF7E1FF50
:102F000001210620FFF702FF09210620FFF7C4FE7A
:102F10000620FFF786FF01210920FFF7F7FE1521A4
:102F20000920FFF7B9FEFFF75DFE002010BD014646
:102F3000A1F11100142869D2DFE800F0671E6823B0
:102F400019146868680F0A686862413C37322D2896
:102F50002948406800F00100704727484068C0F3E6
:102F60004000F9E724484068C0F38000F4E72248B5
:102F70004068C0F3C000EFE71F484068C0F3C010CE
:102F8000EAE71D484068C0F30020E5E71B484068B9
:102F9000C0F34000E0E719484068C0F38000DBE779
:102FA00016484068C0F3C000D6E714484068C0F334
:102FB0000010D1E711484068C0F34010CCE70F483B
:102FC0004068C0F38010C7E70030044038010010AB
:102FD00000000540E463001A3E64001A40420F00FE
:102FE0003DCC00FF005F4C0900D01213C0E1E400AB
:102FF00040787D01001BB70000100540002005400F
:10300000FD484068C0F3C010A6E700E000BF00BF65
:103010000020A1E770B504460D46262C03DB002CEA
:1030200001DC042070BD002D7ED104EB8400F34947
:1030300001EB4000408850B304EB840001EB4000FA
:103040004088EF490844406800F00100F8B104EB03
:103050008400EA4901EB40004088E949405820F0EB
:10306000010004EB8401E54A02EB41014988E44A8E
:10307000885000BF04EB8400E04901EB4000408829
:10308000DF490844406800F001000028F2D104EB59
:103090008400DA4911F810002D280FD004EB8401C8
:1030A000D64A12F81100FFF742FF38B904EB840149
:1030B000D24A12F811000021FFF728FE04EB840029
:1030C000CE4901EB4000C08850B304EB840001EB13
:1030D0004000C088CA490844406800F00100F8B1C7
:1030E00004EB8400C54901EB4000C088C449405846
:1030F00020F0010004EB8401C04A02EB4101C988C1
:10310000BF4A885000BF04EB8400BC4901EB40007B
:10311000C088BB490844406800F001000028F2D193
:1031200004EB8400B54900E018E001EB40000079B1
:103130002D2812D004EB8401B04A02EB410108793A
:10314000FFF7F5FE002808D104EB8401AB4A02EB3F
:10315000410108790021FFF7D9FD9CE004EB8400D0
:10316000A64911F810002D2813D004EB840011F8A3
:103170001000A44931F91000A149405800F00100A5
:1031800038B104EB84019D4A12F811000121FFF7C8
:10319000BDFD04EB8400994901EB4000408850B329
:1031A00004EB840001EB40004088954908444068E6
:1031B00000F00100F8B904EB8400904901EB4000F5
:1031C00040888F49405840F0010004EB84018B4A4D
:1031D00002EB410149888A4A885000BF04EB840011
:1031E000864901EB4000408885490844406800F06A
:1031F00001000028F2D004EB8400804901EB40007C
:1032000000792D2815D004EB840001EB40000079F3
:103210007C4931F910007A49405800F0010040B172
:1032200004EB8401754A02EB410108790121FFF7A3
:103230006DFD04EB8400714901EB4000C08850B380
:1032400004EB840001EB4000C0886D4908444068ED
:1032500000F00100F8B904EB8400684901EB40007C
:10326000C0886749405840F0010004EB8401634A7C
:1032700002EB4101C988624A885000BF04EB840018
:103280005E4901EB4000C0885D490844406800F099
:1032900001000028F2D004EB8400584901EB400003
:1032A000007A48B104EB8401544A02EB4101087AE8
:1032B0002946FFF7AFFEB5E60020B3E60146262912
:1032C00003DB002901DC0420704701EB81004B4B3C
:1032D00003EB400000792D282FD001EB810003EB98
:1032E00040000079474B33F91000454BC058C0F3FC
:1032F000036201EB8100414B03EB40000079414B3D
:1033000033F910003E4BC05800F0010008B1002016
:10331000DAE701EB8100394B03EB4000C088D8B3FA
:1033200001EB810003EB4000C088354B1844406836
:1033300000F0010080BB0020C6E701EB81002F4BAD
:1033400013F810002F4B33F910002D4BC05800F02C
:10335000010008B10020B7E701EB8100274B13F80B
:103360001000284B33F91000254BC058C0F30362FE
:1033700001EB8100214B03EB4000408860B101EB81
:10338000810003EB400040881D4B1844406800F06A
:10339000010008B9002097E7FFE71B4850F822001A
:1033A00092E710B502460C460C2A14DB102A12DCF8
:1033B000144830F91210481C08B9022010BD1048FA
:1033C0000B5823F47F73601EC0B243EA80030C489D
:1033D0000B500020F2E70220F0E70948006A40F0B5
:1033E000010007490862094888620948486209489B
:1033F0000862002070470000002005403C67001A6A
:1034000000000540E463001A38010010622020002B
:10341000FA7F16041C0000064348444908634448E8
:103420004863444888634448086300BF3F48C06A13
:1034300000F001000028F9D000207047F0B50446E4
:103440000D46164640F2FF114FF4000040EA0460BA
:103450000843DFF8D8C0CCF8140000BF33484069F7
:1034600000F400000028F9D1002300E05B1C42F2C8
:1034700010708342FADB2D484069C0F34D2212B927
:103480004FF0FF30F0BDB2F5007F08D32748406908
:10349000C0F3080040F2FF1CACEB00011FE000BFCE
:1034A000491E4FF4000040EA04600843DFF87CC086
:1034B000CCF8140000BF1D48406900F4000000284B
:1034C000F9D1002300E05B1C42F210708342FADB6A
:1034D00016484069C0F34D279742E1D0491C2A6045
:1034E00031600020CEE7FFB505460C4616461F4664
:1034F000102D01DC102C02DD042004B0F0BD01AA67
:1035000003A92846FFF79AFF6A4602A92046FFF75B
:1035100095FF0099039848433060DDE90101484375
:1035200038600020E9E700000100000600000540C7
:10353000D3343E020EF0030010600006002100228A
:10354000026042604FF6FF72C0F8D82F00BF4A1CDD
:10355000D1B2324AC0F8E82FD0F8E02F0AB10A29D8
:10356000F5DB70474FF6FF71C0F8D81FC0F8E81FB1
:10357000704710B532B1012A0FD0022A18D0032AA1
:103580002CD120E0036801248C40A34303604468ED
:1035900001238B409C43446021E0046801238B405D
:1035A0001C430460446801238B409C43446016E044
:1035B000046801238B409C430460436801248C40D1
:1035C000234343600BE0046801238B401C430460E9
:1035D000446801238B401C43446000E000BF00BFEF
:1035E00010BD012A04D101238B40C0F8DC3F03E069
:1035F00001238B40C0F8D83F70470246D2F8E00F55
:1036000001238B40184008B1012070470020FCE7DF
:1036100001228A40C0F8E82F70470000FFFF0F002A
:1036200070B50346F44A1C2B63D2DFE803F00E1199
:1036300014171A1D202326292C2F3235383B3E41E2
:1036400044474A4D505356595C5F0021002053E0D7
:103650000021012050E0012101204DE00021022045
:103660004AE00121022047E00021032044E001213B
:10367000032041E0002104203EE0012104203BE042
:103680000021052038E00121052035E00021062039
:1036900032E0012106202FE0002107202CE001214B
:1036A000072029E00221072026E00021082023E04E
:1036B0000121082020E0022108201DE0002109202E
:1036C0001AE00121092017E000210A2014E001215D
:1036D0000A2011E000210B200EE000210C200BE05D
:1036E00000210D2008E000210E2005E000210F2020
:1036F00002E003210F2000BF00BF46000325B540B4
:103700001468AC431460450001FA05F514682C43B5
:10371000146070BD0020B9490860B949C1F8300192
:10372000B64940310860B54960310860B34980311D
:103730000860B249A0310860B049C0310860AF49A3
:10374000E0310860FF20AE49886008617047F0B53D
:10375000044600260027AA48C0692278012191402A
:10376000C9B2084008B10020F0BDA649206851F850
:103770002050217801208840C0B2A149886021787A
:1037800001208840C0B29E4908610020E86028619D
:10379000206AA8606069082872D2DFE800F0041B84
:1037A0004672A4A5A6A7E068286020696860A08882
:1037B000C0F30B0040F41030217A01F0070140EA19
:1037C0008140217A01F0070140EA415040F00C406D
:1037D000E8608DE0E06828608B49E06951F82000DE
:1037E00068608A49E069085C00F00701606861F37D
:1037F0001F30864AE169515C01F0070140EAC1309F
:10380000834AE169515C01F0070140EA8140E169C6
:10381000515C01F0070140EA415040F00640E86089
:10382000E069FFF7FDFE074662E07749A06951F8BD
:1038300020002860206968607449A069085C00F075
:103840000701606861F31F30704AA169515C01F0A3
:10385000070140EAC1306E4AA169515C01F00701DD
:1038600040EA8140A169515C01F0070140EA415002
:1038700040F00940E860A069FFF7D2FE064637E055
:1038800030E06149A06951F820002860E06951F8F2
:10389000200068605D49A069085C00F0070160686D
:1038A00061F31F30594AE169515C01F0070140EAB8
:1038B000C130574AA169515C01F0070140EA8140DB
:1038C000E169515C01F0070140EA415040F00340DA
:1038D000E860A069FFF7A4FE0646E069FFF7A0FED6
:1038E000074605E000BF00BF00BF00BF00203BE768
:1038F00000BF01204249086300BF4148006B00F04F
:1039000001000028F9D0207D00F007004FF440416D
:1039100041EAC02006F01F0140EA410007F01F0104
:1039200040EA8110286101201EE70246354B53F81A
:103930002200012904D1036943F00103036103E07C
:10394000036923F00103036170470246052A3BD255
:10395000DFE802F0030E19242F0029480068012334
:103960008B40DBB2184008B1012070470020FCE713
:103970002348436801208840C0B203400BB10120B6
:10398000F3E70020F1E71E48C06801238B40DBB25B
:10399000184008B10120E8E70020E6E718488369ED
:1039A00001208840C0B203400BB10120DDE70020B8
:1039B000DBE71348406901238B40DBB2184008B1B4
:1039C0000120D2E70020D0E70D48C36901208840DC
:1039D000C0B203400BB10120C7E70020C5E728B9FA
:1039E00001228A40D2B2064B9A6004E001228A404A
:1039F000D2B2034B1A6170471C31044010210040C1
:103A0000002000407C010010C468001A3469001ACC
:103A10005069001A10B53AB1294B53F820300B43C6
:103A2000274C44F8203006E0254B53F820308B43D8
:103A3000234C44F8203010BD224A42F82010704731
:103A4000204A803242F82010704701461E4850F844
:103A50002100704770B504460D4616463246294689
:103A60002046FFF7D7FF70BD10B503460C46214630
:103A70001846FFF7E1FF10BD10B503460C4621467E
:103A80001846FFF7DDFF10BD00B502461046FFF7F0
:103A9000DCFF00BD10B54AB1094B803353F820302C
:103AA0000B43074C803444F8203008E0044B80334B
:103AB00053F820308B43024C803444F8203010BD42
:103AC00000600F4000620F4000610F400146F74860
:103AD000814201D100207047F548814201D1012087
:103AE000F9E74FF0FF30F6E7014608208861202013
:103AF000086000BF086800F008000028FAD0202005
:103B00008861486800F0F8007047016801F0200102
:103B100009B1202181611021016008218161704774
:103B20000246106800F0200008B120209061C8B261
:103B300090600820906100BF106800F00800002825
:103B4000FAD0506800F0F80070470346012A02D10D
:103B50000420186001E0042098610820986100BFEB
:103B6000186800F008000028FAD0986808705868B3
:103B700000F0F800704770B504460D46CB4884420B
:103B800010D11A210920FFF787F8CA48854204D3CB
:103B900040F68C40C849086016E040F60800C64967
:103BA000086011E0C24884420DD11B210920FFF7B3
:103BB00073F8C120C1490860C149C1F81001C1486A
:103BC000854201D070BDFDE7B5F57A7F00D2F9E7F7
:103BD0001120FFF773FB0646B6FBF5F6700820616F
:103BE0002069301A60616C20A06100BFEAE74021C3
:103BF00081617047012902D14022026001E0402228
:103C00008261704770B504460D466DB1A748844285
:103C100003D1122000F0FBFB13E0A548844210D131
:103C2000132000F0F4FB0CE0A048844203D11220E2
:103C300000F0F8FB05E09E48844202D1132000F01A
:103C4000F1FB70BD2DE9F04105462846FFF73EFF28
:103C500006469D4850F83640686800F0F8076762ED
:103C6000F82F03D10820A861BDE8F081964800EB49
:103C7000C6004068002857D1202F48D006DC082F06
:103C80000BD0102F0AD0182F4CD115E0282F14D0AC
:103C9000302F3DD0382F45D13FE000BF2020A86114
:103CA000606838B1A06828B120684000A86008208A
:103CB000A86100E012E036E000BFD4E902108842BB
:103CC0000BD2606848B1E1686068405CA860E06859
:103CD000401CE0600820A86118E000BF01207A497C
:103CE00001EBC6014860606958B1206948B1A0681D
:103CF00030B1606820B1202028600C20A86105E068
:103D000031E0606A40F4806060628DE00BE000BFEB
:103D1000606A40F40070606277E0606A40F480702E
:103D2000606200BF71E08CE0674800EBC60040684D
:103D30000128F8D1402F24D006DC082F0BD0102FFB
:103D40000AD0382F60D15AE0482F53D0502F25D0B9
:103D5000582F59D13CE000BF2020A861206950B104
:103D6000606940B100BF0121206801EB4000A860FC
:103D70000820A86104E0606A40F48060606253E05B
:103D80005EE0D4E90501401E814202D20420286091
:103D900001E00420A8610820A86151E0206950B129
:103DA000D4E90510884206D2A868A269216988541E
:103DB000A069401CA061D4E90501401E814202D2E5
:103DC0000420286001E00420A8610820A86137E0F1
:103DD000206950B1D4E90510884206D2A868A269CA
:103DE00021698854A069401CA061606A40F4806029
:103DF000606219E0606A40F40070606205E0606A29
:103E000040F48070606200BF00BFD4E907108842B0
:103E100009D20020E060202028600C20A861206AE0
:103E2000401C20620BE000BF00212846FFF7EAFE9D
:103E30002846FFF76AFE0120244941F8260000BF0A
:103E400000BF00BF10E72DE9F04104462046FFF710
:103E50003DFE80461C4850F83850606800F0F80677
:103E6000AE61F82E03D10820A061BDE8F08106F014
:103E7000070000287BD1F0100C38142877D2DFE837
:103E800000F00F761076273A283B3E59765A6D7629
:103E900076767676760A042020600820A06172E0AB
:103EA00000BF042020600820A0616CE000100A40E0
:103EB00000000E4040420F00846C08400C61084036
:103EC00000600840801A0600440400105C040010E2
:103ED00000BFD5E90410884208D2E86830B1A06874
:103EE0006A69E96888546869401C68610420206038
:103EF0000820A06147E000BF0820A06143E0002146
:103F00002046FFF77FFE0820A06147030FE02068EE
:103F100000F0080020B101212046FFF773FE07E002
:103F20007F1E27B9A86940F48060A86120E0EEE711
:103F300000BF28E000BFD5E90110884208D22868F8
:103F400030B1A9682868405CA060A868401CA860DF
:103F5000042020600820A06115E008E00420206013
:103F60000820A061A86940F48060A86100E000BF5B
:103F700000212046FFF746FE2C20A0610120F849D1
:103F800041F8280000BF00BF00BF6EE72DE9F843ED
:103F900006460C461746D4F80480D4F8109000204A
:103FA000E060A0616062002F7ED1206200BFD4F883
:103FB0000480D4F810900020E060A0610025304615
:103FC000FFF792FD0546082D0BD0102D09D0206A71
:103FD000401C2062D4E90710884201D96562ABE039
:103FE000E5E7A068A0B3606890B320784006010EB2
:103FF0003046FFF795FD0546182D0BD0206A401C72
:104000002062D4E90710884203D945F40070606249
:1040100092E0CCE718E098F800103046FFF780FDFA
:104020000546282D0BD0206A401C2062D4E90710D9
:10403000884203D945F4007060627DE0B7E708F17B
:104040000108E068401CE060D4E902108842E2D335
:10405000A068B8B16068A8B1606998B1206988B1FA
:104060003046FFF741FD0546082D0BD0102D09D035
:10407000206A401C2062D4E90710884201D9656299
:104080005AE094E76069002850D0206900284DD09C
:104090002078012202EB4000C1B23046FFF740FD1C
:1040A0000546402D0DD000E04BE0206A401C206208
:1040B000D4E90710884203D945F4007060623BE000
:1040C00075E72FE0D4E90501401E814211D201229B
:1040D00069463046FFF739FD0546502D1BD0206A52
:1040E000401C2062D4E90710884201D9656223E0B0
:1040F0005DE7002269463046FFF727FD0546582D4B
:1041000009D0206A401C2062D4E90710884201D9F6
:10411000656211E04BE79DF8000009F8010BA0690A
:10412000401CA061D4E905108842CBD33046FFF78C
:10413000ECFC0120BDE8F8833046FFF7E6FC0020E8
:10414000F8E7012F28D13046FFF7C0FCC0B200903D
:1041500084489DF8001040F83140002081499DF8C6
:10416000002001EBC20148600820B06120203060CF
:1041700001213046FFF746FD00BF7B489DF8001047
:1041800050F821000128F8D1002077499DF800203F
:1041900041F822000120CDE70020CBE72DE9F84FC0
:1041A00004460D461646D5F80090D5F80CA0002020
:1041B000A8606861A861002E75D1042020602820C5
:1041C000A0610020009083466EE0206800F00800A7
:1041D00000285FD000200090606800F0F80707F02A
:1041E0000700002852D1F8100C3814284ED2DFE80E
:1041F00000F00F4D104D152716282B324D33444D2E
:104200004D4D4D4D4D0A042020600820A06140E036
:1042100000BF042020600820A0613AE000BFD5E97B
:104220000410884207D2E86828B1A0680AF8010B98
:104230006869401C6861042020600820A06128E0B3
:1042400000BF0820A06124E00820A06101200090A8
:104250004FF0000B1DE000BFD5E90110884207D2E6
:10426000286828B119F8010BA060A868401CA86054
:10427000042020600820A0610BE0042020600820BA
:10428000A061012000904FF0000B02E00820A06127
:1042900013E009E0009838B158460BF1010BB0F576
:1042A000803F01D901E00DE08FE70420A06147F4D1
:1042B0008060A8610120BDE8F88F0420A061AF6193
:1042C0000020F8E7012E15D12046FFF7FFFB8046BE
:1042D000244840F838500120224901EBC8014860C9
:1042E000042020602820A06101212046FFF78AFCDD
:1042F0000120E0E70020DEE710B58B78012B00D12C
:1043000000E000234C7843EA4403DAB20B7833B17F
:10431000012B0AD0022B0ED0032B18D111E0C26062
:10432000CB7803F0FE03036311E00262CB7803F065
:10433000FE0444630BE04262CB7803F0FE04846326
:1043400005E08262CB7803F0FE04C46300BF00BFC7
:1043500010BD10B5012A09D1C3690B43C3610AE03E
:1043600068040010440400105C040010C3690724B2
:104370008C432340C36110BD012908D1C26942F0BA
:104380000102C261042202602822826105E0C26942
:1043900002F00602C2612C2282610022264B1A60C2
:1043A00070470146C86AC0B2704730B50346002066
:1043B00008249C61DC6A204D2D684C551E4C2468F5
:1043C000641C1D4D2C602C462468944200D30120AF
:1043D00030BD70B505462846FFF778FB0446174800
:1043E00050F824600020154941F82400304670BD83
:1043F00070B505462846FFF769FB0446104850F89B
:10440000246000200E4941F82400304670BD00F0C1
:104410001F02012191404209920002F1E022C2F8FC
:104420000011704700F01F0201219140054A430925
:1044300042F82310704700009C0100105C0400103B
:104440006804001080E100E0F0B5074DD618C70100
:104450004FF0040C0CFB0174E71704EB9777BF10C7
:1044600045F82760F0BD0000006008402DE9F04FDE
:104470008BB004468946174600200A900997F948F0
:10448000844206D10FB1099703E02020FEF716FF02
:104490000990F548844206D10FB1099703E0212025
:1044A000FEF70CFF0990F148844206D10FB109973D
:1044B00003E02220FEF702FF0990ED48844206D176
:1044C0000FB1099703E02320FEF7F8FE09904FF0A3
:1044D000FF3B00200790069000252E464FF0010874
:1044E0004EE00020089041E00898404400FB09FCA1
:1044F00000210907099841EA101100070022A0FBDA
:10450000083E01FB08E100FB02106246CDE90030E5
:104510000023DDE9000100F023FFCDE90401049848
:104520000390DDF814A00398B0F1004F04D903986C
:10453000404203900AF1010ABAF1000F02D0BAF525
:10454000803F00D90FE0039858450BD2DDF80CB03E
:104550000026554608980790CDF81880BBF1000F4B
:1045600000D106E000BF0898401C0890089840451C
:10457000BAD300BFBBF1000F00D104E008F101087D
:10458000B8F10F0FADD900BF002185EA01007140DD
:10459000084302D10BB0BDE8F08F099800090699D5
:1045A00000FB01FC0846079908440021A0FB0523F5
:1045B00001FB053100FB06100346CDE900206046F3
:1045C000002100F0CDFE02900298814503D90298A7
:1045D000A9EB000B02E00298A0EB090B64200BFB97
:1045E00000F0B0FBF9FBBBF1030F35D29E488442CB
:1045F00018D1E06840F08000E060280A40EA0660D8
:10460000C0B26060E8B22060E06800F07F00E06067
:10461000F021069801EA0010079901F00F01084304
:10462000A06217E0E06840F08000E060280A40EAFD
:104630000660C0B26060E8B22060E06800F07F0011
:10464000E060F021069801EA0010079901F00F01DF
:104650000843A06201200A900A989BE770B50446BF
:104660000E468048844203D121210620FEF714FB28
:104670007D48844203D122210920FEF70DFB7B48AF
:10468000844203D123210620FEF706FB78488442AA
:1046900003D124210620FEF7FFFA734884421ED17D
:1046A0000720A0600020A06000E02568606900F09D
:1046B00001000028F9D18020206300BF606900F06C
:1046C00020000028FAD0002020636060E0602062B3
:1046D0002061E06460652065A56965691EE00720CA
:1046E000A0600020A06000E02568606900F0010083
:1046F0000028F9D10120E06500BF606900F02000CA
:104700000028FAD00020E0656060E060206220644C
:10471000A064A065E06460652065656954488442D2
:1047200001D1002060622046B2683168FFF79EFE2A
:104730004D48844203D1E06800F0C00502E0E06823
:1047400000F0C005707930B1012806D0022807D0EA
:10475000032808D108E000BF09E045F0010506E0A4
:1047600045F0020503E000BF45F0030500BF00BFB0
:104770003079C0B145F008053079012806D002280B
:1047800006D0032807D004280BD107E000BF09E0BA
:1047900045F0100506E045F0200503E045F0300542
:1047A00000E000BF00BFB07928B1012802D145F078
:1047B000040501E000BF00BF00BF2B48844202D1C6
:1047C000E8B2E06001E0E8B2E06070BD01290CD120
:1047D000254A904204D1026B42F0800202630EE04F
:1047E000C26D42F00102C26509E01F4A904203D146
:1047F000026B0022026302E0C26D0022C2657047B4
:1048000000B5034600211846FFF7E0FF00BD4FF456
:10481000E1310160032141710021017181718160E9
:104820007047114A904202D1CAB2026001E0CAB296
:104830000260704701460C48814202D10868C0B24C
:1048400070470868C0B2FBE72DE9F04F074689467C
:1048500092469B464E465346BBF1010F2DD1002494
:1048600028E00000001008400020084000100C4024
:1048700000200C404FF0FF3805E0B8F1000F00D1E8
:1048800006E0A8F10108786900F020000028F4D0C3
:1048900000BFB8F1000F00D10EE0102507E016F8B8
:1048A000011B3846FFF7BDFF6D1E5B1E641C0DB17A
:1048B000002BF4D1002BDDD116E0002411E0786943
:1048C00000F0200000B90EE0102507E016F8011BEB
:1048D0003846FFF7A6FF5B1E6D1E641C0DB1002B52
:1048E000F4D1002BEBD100BF2046BDE8F08F2DE9BD
:1048F000F04305460F46904699463C464346B9F17B
:10490000010F19D1002214E04FF0FF3602E006B982
:1049100005E0761E686900F001000028F7D000BFAE
:1049200006B908E02846FFF785FF04F8010B5B1E77
:10493000521C002BE8D110E000220BE0686900F067
:10494000010000B908E02846FFF774FF04F8010BE6
:10495000521C5B1E002BF1D100BF1046BDE8F08356
:10496000F849884204D1C16841F04001C16003E0C8
:10497000C16841F04001C160704730B50B4600216D
:10498000072B15D2DFE803F00406080A0C0E11000D
:1049900001210DE002210BE0042109E0082107E0DC
:1049A000802105E04FF4807102E04FF4007100BFF8
:1049B00000BF012A0AD1E34CA04203D144680C4352
:1049C000446013E044680C4344600FE0DD4CA042B7
:1049D00006D1446840F28F358D432C40446005E099
:1049E000446840F207358D432C40446030BD014699
:1049F000D448814202D14069C0B270474869C0B210
:104A0000FBE70146486900F0400008B1002070470C
:104A10000120FCE70246002040F00100CB7833B1D2
:104A2000012B06D0022B07D0032B08D108E000BFD2
:104A300009E040F0400006E040F0800003E000BFE5
:104A400040F0C00000BF00BF4B78012B01D140F007
:104A500004000B78012B01D140F002008B78012B70
:104A600001D140F00800B74B9A4203D100F0CF03C8
:104A7000936002E000F0CF039360704700218170E3
:104A8000C170012101704170704710B50B460021C3
:104A9000012A09D11C78012C01D141F002015C7876
:104AA000012C01D141F00401A64CA04215D1012AEC
:104AB00010D1C46844F08004C460002404604460E1
:104AC000C46824F08004C4601024846241F00104AE
:104AD000046217E00024046214E0012A10D1C468C3
:104AE00044F08004C460002404604460C46824F07E
:104AF0008004C4601024846241F00104046201E077
:104B00000024046210BD012904D1426A42F002026D
:104B1000426204E019B9426A02F03D024262704703
:104B2000012904D1426A42F00102426203E0426A72
:104B300002F03E024262704710B54C07A30E446A71
:104B400024F0380243F00404224302F03F0444629C
:104B500010BD30B5002311B1012904D101E00123BA
:104B600002E0022300E000BF00BF012A03D1046974
:104B70001C43046104E00469F3259D432C40046157
:104B800030BD30B5002321B1012904D0022906D15E
:104B900003E0102304E0402302E0802300E000BF94
:104BA00000BF012A03D104691C43046104E00469C5
:104BB000F3259D432C40046130BD01468869C0B295
:104BC00070470022CB78012B13D142F010024B79B1
:104BD000012B01D142F020020B79012B01D142F0CF
:104BE0000802584B984202D1CB79436501E0CB795A
:104BF00043650B78012B01D142F001028B78012B28
:104C000009D142F004024F4B984202D18B790365DF
:104C100001E08B7903654B780BB942F00202494BF6
:104C2000984203D102F03F03C36402E002F03F0365
:104C3000C364444B984204D1C36843F03803C36053
:104C400003E0C36843F03803C36070473D4A9042B5
:104C50000BD1012904D1C26C22F00202C2640FE020
:104C6000C26C42F00202C2640AE0012904D1C26CA3
:104C700022F00202C26403E0C26C42F00202C2648B
:104C800070472DE9F04704468946924698462D48DC
:104C9000844225D1B8F1000F14D0E068C5B22F4688
:104CA00027F01007E7600123524649462046FFF7E8
:104CB000CBFD064600BF606900F040000028FAD036
:104CC000E56032E00123524649462046FFF7BCFD2D
:104CD000064600BF606900F040000028FAD024E0DA
:104CE000B8F1000F14D0E068C5B22F4627F01007C6
:104CF000E7600123524649462046FFF7A5FD0646D8
:104D000000BF606900F040000028FAD0E5600CE0C8
:104D10000123524649462046FFF796FD064600BF4E
:104D2000606900F040000028FAD03046BDE8F08706
:104D300013B5044601231A4601A92046FFF7A1FF37
:104D40001CBD00000020084070B504460D46164604
:104D50000023324629462046FFF793FF70BD00002E
:104D600010B5104B104802461860104810490860F2
:104D7000B2F1E05F06D10F48006840F400200E4910
:104D8000C1F800020D48016821F4704141F4C044AB
:104D90000460001D016821F4704141F4C0440460C6
:104DA00010BD000008ED00E00000001A00D8B805B2
:104DB000A00100100052004000500040203104408B
:104DC00040F281500C49086008204860704770B577
:104DD00005460C4605F5C06020608038064908602D
:104DE0000820606000220120FDF76BFE21461120A3
:104DF000FDF71DFE002070BD7404001070B505465F
:104E0000002403E0295DFD480155641C082CF9DBF2
:104E10000020FB49087042F2107403E00CB1641EDC
:104E200000E003E0F64800780028F7D000BFF5491D
:104E30000020FDF79DFE002070BD0121F04A117099
:104E4000704770472DE9F04781460E4690461C4654
:104E5000089D012D04D0022D07D0042D0FD109E0AB
:104E60002F20E649083908720AE02B20E349083967
:104E7000087205E02320E1490839087200E000BF0C
:104E800000BFDE4808384672310A817280F80B8014
:104E9000217801732846012801D9607800E00020BC
:104EA000D649083948732846022801D9A07800E07D
:104EB0000020D249083988732846022801D9E078B1
:104EC00000E00020CD490839C8730020CC490870A3
:104ED000CA4908394846FFF77AFFCB4F0CE00FB1BB
:104EE0007F1E09E0AFF2AD03AFF2A90200214FF43B
:104EF0008A40FDF75DFD03E0C14800780028EED050
:104F000000BFC0490020FDF733FEBE4C083400202E
:104F1000BDE8F0871CB5044640F20F100190022056
:104F200001AB002246F2400100902046FFF78AFFC5
:104F300000201CBD7CB505460C460194042001AB45
:104F4000002246F2FF0100902846FFF77BFF002079
:104F50007CBD13B582B00446012003AB002246F2AB
:104F6000600100902046FFF76DFF002004B010BDE7
:104F70002DE9F04780460D4616461C46DDF8209088
:104F800040209E490839087208464572290A8172F4
:104F9000C67208209949083948600020984908706D
:104FA000964908394046FFF712FF43F2C8270CE044
:104FB0000FB17F1E09E0AFF27D13AFF2791200212D
:104FC0004FF48A40FDF7F4FC03E08D480078002898
:104FD000EED000BF8B490020FDF7CAFD8948007B59
:104FE00020708848407B60708648807BA070854830
:104FF000C07BE0700020BDE8F0871CB504460120AE
:1050000001AB002246F2400100902046FFF7B0FFBE
:105010009DF904001CBD10B504462046FFF7EDFFC6
:10502000032803D003212046FFF793FF002010BD83
:1050300013B582B00446022003AB002246F24001C1
:1050400000902046FFF7FEFE002004B010BD10B512
:10505000044606212046FFF7EBFF002010BD10B5E7
:10506000044680212046FFF7E3FF002010BD10B565
:1050700004460F212046FFF7DBFF002010BD70B56E
:10508000054600242846FFF7EAFF2846FFF7EFFF12
:105090002846FFF7E4FF2846FFF7D9FF00BF00E0EE
:1050A000641C642CFCDB40F20F112846FFF7C0FFA4
:1050B000002400E0641C642CFCDB002070BD1CB5E7
:1050C000044600200190042001AB002246F2410179
:1050D00000902046FFF74CFF01981CBD1CB504460C
:1050E00000200190042001AB002246F264010090F0
:1050F0002046FFF73DFF01981CBD1CB504460F205C
:105100000190022001AB002246F2400100902046AF
:10511000FFF798FE00201CBD2DE9F04180460C46AB
:105120003A48066814B90020BDE8F081002C00DA86
:10513000764231B24046FFF7FDFE4046FFF7CEFF14
:10514000074627444046FFF7D8FF4046FFF7C6FF13
:105150000546002C18DD13E04046FFF7BFFF05466B
:105160004046FFF7ACFF00F0010048B94046FFF7AA
:1051700086FF4046FFF74FFF31B24046FFF7DAFEA9
:10518000781B0028E8DC17E013E04046FFF7A6FF95
:1051900005464046FFF793FF00F0010048B940463E
:1051A000FFF76DFF4046FFF736FF31B24046FFF78D
:1051B000C1FEE81B0028E8DC4046FFF7ABFE0020FC
:1051C000B2E72DE9F04180460C461048066840469B
:1051D000FFF784FF0746A74200DD764231B2404622
:1051E000FFF7A8FE25464046FFF787FF4046FFF73A
:1051F00075FF0746002E13DD0EE000008C04001042
:10520000A40100109404001040420F00AC010010F3
:105210004046FFF763FF0746E81B0028F8DC07E07D
:1052200003E04046FFF75AFF0746781B0028F8DCEA
:105230004046FFF76FFE0020BDE8F0810246474878
:105240000160002070477CB505460C46019404209F
:1052500001AB002246F2FF0100902846FFF7F2FD65
:1052600000207CBD1CB5044600200190042001AB49
:10527000002246F26C0100902046FFF779FEBDF94E
:1052800004001CBD13B582B00446042003AB002209
:1052900046F2830100902046FFF7D4FD002004B0C1
:1052A00010BD13B582B00446042003AB002246F2C1
:1052B000840100902046FFF7C5FD042003AB0022C7
:1052C00046F2850100902046FFF7BCFD002004B0A7
:1052D00010BD10B504462046FFF7C1FE2046FFF77B
:1052E000B6FE002010BD10B504462046FFF7AFFE05
:1052F00010BD70B52DED028B05460C46B0EE408A10
:10530000F0EE608A00BF2846FFF7D9FE2040002853
:10531000F9D00020BDEC028B70BD1CB50446002006
:105320000190022001AB002246F24001009020468D
:10533000FFF71EFEBDF904001CBD1CB5044600208D
:105340000190012001AB002241F2010100902046B2
:10535000FFF70EFE9DF804001CBD0000AC0100101C
:105360002DE9F05F0546002092469B46884606469A
:10537000814640241BE0284641464746224600F02D
:105380007AF953465A46C01A914110D3114618462D
:10539000224600F061F92D1A67EB01084F462246BC
:1053A0000120002100F058F917EB00094E41201EA2
:1053B000A4F10104DFDC484631462A464346BDE8F5
:1053C000F09F2DE9F0410024061B254671F10006EF
:1053D00005DA01240027D0EB070067EB0101161E58
:1053E00073F1000605DA0027D2EB0702012567EB0F
:1053F0000303FFF7B5FF86460E4617469C46AC42B0
:1054000004D00025D0EB050E65EB010624B1002089
:10541000D2EB000760EB030C704631463A46634618
:10542000BDE8F0812DE9FE4F81EA030404F0004459
:1054300021F0004100944FF0000B23F0004350EAAC
:1054400001045ED052EA03045BD0C3F30A54C1F3F3
:105450000A552C44A4F2F3340194A0FB0254C1F386
:10546000130141F48011C3F3130343F4801301FBD0
:10547000024400FB034E840A970A44EA815447EA37
:105480008357A4FB076802958D0A05FB07854FEA41
:10549000932C04FB0C542705029D4FEA065847EA5B
:1054A0001637B5EB08056EEB070C870E920E47EA30
:1054B000811742EA8312A7FB0201B6EB0B0164EBF2
:1054C00000042B0D43EA0C335E1844EB1C50DA4603
:1054D0005146E7FB0201C5F313044FEA0B3343EADD
:1054E00014534FEA0432019C43EA0603A4F10C046E
:1054F0000294009CCDE900B400F0DCF803B0BDE8F4
:10550000F08F00200146F9E72DE9F04D81EA030410
:1055100004F0004B21F0004514464FF0000A23F040
:10552000004150EA050220D054EA01021DD0C5F323
:105530000A570246C5F31303C1F31300C1F30A5619
:1055400040F4801543F48013A7EB0608101BD646E1
:1055500008F2FD3873EB050002D308F1010801E001
:1055600092185B41B8F1000F03DA00200146BDE854
:10557000F08D00204FF48011064684460EE0171B84
:1055800073EB050705D3121B63EB050306434CEAD7
:10559000010C49084FEA300092185B4150EA0107BC
:1055A000EDD152EA030012D082EA040083EA050139
:1055B000084305D0101BAB4106D20122002306E0B0
:1055C00000224FF0004302E06FF0010253101AEB8B
:1055D00006004CEB085110EB0A0041EB0B01BDE853
:1055E000F04D00F058B83EB5CA17CB0F002450401C
:1055F0005140C0186141DA0740F233430094CDE9CD
:1056000001232246234600F055F803B030BD70B5A3
:10561000C1F30A5201F000450024C1F3130140F226
:10562000FF3341F480119A4202DA0020014670BD36
:1056300040F233439A42A2F2334203DC524200F07A
:105640001AF801E000F008F82C43F0D00023D0EB6A
:10565000030063EB010170BD202A04DB203A00FA4D
:1056600002F1002070479140C2F1200320FA03F3B9
:10567000194390407047202A04DB203A21FA02F0B7
:105680000021704721FA02F3D040C2F1200291407C
:1056900008431946704710B5141E73F1000408DA68
:1056A000401C41F1000192185B411A4301D120F0E6
:1056B000010010BD2DE9F04D92469B4611B1B1FAA3
:1056C00081F202E0B0FA80F220329046FFF7C4FF88
:1056D00004460F4640EA0A0041EA0B0153465A4687
:1056E000084313D0114653EA010019D0C8F1400213
:1056F0005046FFF7C0FF05460E4650465946424603
:10570000FFF7AAFF084305D0012004E020463946F0
:10571000BDE8F08D0020054346EAE0762C43374390
:105720000A986305E40AA0EB08000022FD0A44EA97
:1057300047540A3002D500200146E9E70105101957
:105740006941DDE9084500196941BDE8F04DA2E76E
:10575000064C074D06E0E06840F0010394E80700BE
:1057600098471034AC42F6D3FAF7CEFD906A001A8F
:10577000B06A001A2DE9FE4F804681EA0300C00F8F
:105780000C46009021F0004123F00045B8EB0200E8
:10579000A94105D24046214690461C460B4602468A
:1057A00023F00040104347D0270DC7F30A00C3F38E
:1057B0000A510290401A019040286BDAC3F313009B
:1057C00040F4801B0098924620B10023D2EB030ADC
:1057D00063EB0B0B01985946C0F140025046FFF7AE
:1057E0003BFF06460D4650465946019A00F0A6F882
:1057F00010EB08006141002487EA115284EAE77344
:105800001A4340D0009A62B3019A012A4FEA075224
:1058100015DC001B61EB02014FF0004202EA075267
:10582000CDE90042001C41F5801132462B46FFF7BE
:1058300041FF03B0BDE8F08F40462146F9E7001B69
:1058400061EB0201001C41F5801300185B41201838
:10585000A2F5001747EB030140EAD570B6196D4178
:1058600011E06D084FEA360645EAC0754FEA075267
:10587000001B61EB0201001C41F5801149084FEA51
:1058800030000019514132462B4603B0BDE8F04FBD
:10589000FFF701BF0098012240000023D0EB020275
:1058A00063EBE073009821464FEAE074B8EB000028
:1058B00061EB0401E9E783F000435BE781F000411D
:1058C00058E70EB5C10F80EAE0700844CA0700210E
:1058D00040F233438DE80E000A460B46FFF7EAFE1E
:1058E00003B000BD0EB540F2334102910021CDE975
:1058F00000110A460B46FFF7DDFE03B000BD70B590
:10590000C1F30A5201F000450024C1F3130140F233
:10591000FF3341F480119A4201DA002070BD40F259
:1059200033439A42A2F2334203DC5242FFF7A3FE12
:1059300000E090402C43F1D0404270BD202A06DBAD
:10594000CB17203A41FA02F043EAE07306E041FA4D
:1059500002F3D040C2F1200291400843194670473B
:1059600070B58C1810F8015B15F0070301D110F821
:10597000013B2A1106D110F8012B03E010F8016B4E
:1059800001F8016B5B1EF9D12B0705D40023521ED1
:105990000DD401F8013BFAE710F8013BCB1A921C39
:1059A00003E013F8015B01F8015B521EF9D5A14237
:1059B000D8D3002070BD03B401984100009850EA8C
:1059C000C12018BF04204A0D18BF40F0010040F26A
:1059D000FF72B2EB515F08BF40F00200012808BF20
:1059E000052002B07047000010B52F499FED2C1B19
:1059F0002DED020B84B0059820F000408842D8BFFE
:105A00009DED040B2DDD2949884209D1049840B948
:105A10004FF0010000F0D4FC00F0A2FC06B010BD75
:105A200005DB9DED040B00F08FFC06B010BD684651
:105A30009DED040B00F0A0F810F0030004BF9DEDF5
:105A4000021B9DED000B0CD001280ED09DED021B1A
:105A50009DED000B022817D0012000F0DDFB06B001
:105A600010BD00F0A5FA06B010BD9DED021B9DED26
:105A7000000B012000F0D0FB51EC100B81F0004135
:105A800006B041EC100B10BD00F092FA51EC100B77
:105A900081F0004106B041EC100B10BD0000000089
:105AA0000000000000000000FB21E93F0000F07F43
:105AB00010B52F499FED2C1B2DED020B84B00598DE
:105AC00020F000408842DCBF00209DED040B32DD59
:105AD0002849884209D1049840B94FF0010000F0EC
